:020000040000fa
:080000000002040000000000f2
:020000040000fa
:100008009a0200009a0200009a0200009a02000078
:100018009a0200009a0200009a0200009a02000068
:100028009a0200009a0200009a0200009a02000058
:100038009a0200009a0200009a0200009a02000048
:020000040000fa
:020000040000fa
:100400000f8020000eff20000e0188000000000079
:10041000000020000000e000020032000001200087
:10042000200288000c000700e08a20000100200064
:1004300011000700000020000000e0000200320070
:100440000000020000000000d406020000000000ce
:100450000040da000000fe004440a90080172000a0
:100460000000e0000300320000002000a00188002e
:100470004440a80000000600910188008000780038
:100480000000eb0015003700e280400032a0b4000d
:100490009101ba00e280400032a0b4009102ba009b
:1004a000e280400032a0b4000002eb00472bde00e7
:1004b000f507b200602ce10004003a000059eb009f
:1004c0008301e900fdff3e00040037006128e100e0
:1004d000010032000082eb00040007001101ba00a5
:1004e0000200e000e8ff3a00000006003159ba00bf
:1004f0008301e9000c0032002159ba008301e900b0
:10050000080032000400e00003003a00e2804000ee
:1005100032a0b400f5ff370011d9ba008301e90019
:10052000faff3a008100e800e180400032a0b40008
:10053000000006000040da000000fe00889fbe00b8
:100540008a9fbe003004be002005be0004044400a3
:1005500085844c0006054d0087854d000898be0037
:100560000a90be000440e10005c8e10006d0e100a9
:1005700007d8e10002003100680040001008e800e0
:100580004f05be004f04be00000006001000fa0038
:10059000889fbe008a9fbe00110020000605be0095
:1005a0000404be003002be002003be00c4b79f009a
:1005b000d5b79f00e6b79f00f7b79f00080252002b
:1005c00089825a000a035b008b835b0084bf9f0013
:1005d00095bf9f00a6bf9f00b7bf9f000498be00b5
:1005e0000698be004fb29700dfb297006fb3970036
:1005f000ffb397000820e10009a8e1000ab0e1007c
:100600000bb8e100010039008000eb004f05be008f
:10061000108810004f04be000080fa0000000600a1
:100620001400fa00889fbe008a9fbe008c9fbe0007
:100630000006eb003e000700ccb79f00bcb79f0050
:10064000acb79f009cb79f008cb79f000605be000b
:100650000404be000d0420004fb39700bfb2970002
:10066000860343002fb29700e00f530004003d00c3
:100670003d0007000f004000b0ff070003003700f7
:10068000390007000f004000c0ff0700cfb29700fd
:1006900095bf9f00e08f5200090035002b00070036
:1006a00014002000050020006033b8000000720034
:1006b0008180720002017300838173001c000700b7
:1006c0000c06e8008d0f5600e3ff3a001fba9700b2
:1006d000e00f520005003d000802be000a03be0004
:1006e00000fe2f000f00400094ff07004faa970064
:1006f000e00f520008003a000fb497009fb4970033
:100700002fb59700bfb59700d8b79f00e9b79f00f6
:10071000fab79f008bbf9f000c0007004f06be007a
:100720004f05be004f04be000080fa000000060026
:10073000010007000000060090b79f00a1b79f00ce
:10074000b2b79f00c3b79f0000000600010007007a
:10075000000006001fb09700afb097003fb19700b0
:10076000cfb19700000006004f2bde00f9ff070015
:1007700086837300858242004f23de00a7b79f0067
:10078000868272000402420095b79f00ffaa97007c
:100790004f2bde00858242000602720084b79f0064
:1007a0006faa97004f23de00040242008682720087
:1007b000f5af9f004f18de0000027200e5ff070052
:1007c000e4af9f0000004000818048000201490022
:1007d000838149000802be000a03be00d6ff07005d
:1007e00000fe2f0000000600881f7800180020007f
:1007f000881f78008aff07008f87e9004f04780080
:1008000000000600801feb0085ff07008f87e900ce
:1008100000000600889fbe008a9fbe00e00f5000c7
:10082000e08f5800e00f5900e08f59000c003d00a8
:100830006044b8006055b8000000540081805c003e
:1008400002015d0083815d00180020001500070093
:1008500008003d00180007000004eb000500370009
:100860000004eb000f00070002003d00120007002b
:1008700018002000dcff0700e00f540006003200e3
:100880006022b8006033b8000000520081805a0036
:1008900002015b0083815b004f05be004f04be0078
:1008a00000000600e00f5200e08f5a00e00f5b00ee
:1008b000e08f5b00000006006044b8006055b8009f
:1008c0000402540085825c0006035d0087835d009e
:1008d00000000600889fbe008a9fbe008c1f780023
:1008e000e00f5000e08f5800e00f5900e08f5900f2
:1008f0000d003d006044b8006055b8001c002000a9
:100900000000540081805c0002015d0083815d0075
:100910000820e10009a8e1000ab0e1000bb8e100fd
:100920000d003d00080037000006eb00e00f52000c
:10093000e08f5a00e00f5b00e08f5b0006003d0097
:100940006044b8006055b8000402540085825c0021
:1009500006035d0087835d00aaff0700e00f5600d5
:10096000060032006022b8006033b8000000520078
:1009700081805a0002015b0083815b004f06780092
:100980004f05be004f04be0000000600889fbe0059
:100990008a9fbe008c1f78000006eb00e00f50001d
:1009a000e08f5800e00f5900e08f590007003d002c
:1009b0006044b8006055b8001c00200000005400de
:1009c00081805c0002015d0083815d00e00f5200c8
:1009d000e08f5a00e00f5b00e08f5b0007003d00f6
:1009e0006044b8006055b8000c00a2000402540036
:1009f00085825c0006035d0087835d000c000700b4
:100a0000e00f5600060032006022b8006033b800e4
:100a10000000520081805a0002015b0083815b006c
:100a20004f0678004f05be004f04be0000000600d0
:100a3000889fbe008a9fbe008c9fbe000404b80041
:100a40000506b8008904460060854e000606b80019
:100a50000a054600e0854e000706b8008b054600f3
:100a6000040eb800890446000a854e00e0854d005a
:100a7000050eb8000a0546008b854e00060eb8002c
:100a80008b0546000416b8000a0546008b854e000b
:100a90000516b8008b054600041eb8008b054600fd
:100aa0000800be000a01be004f06be004f05be0092
:080ab0004f04be000000060027
:020000040000fa
:100ab8005370000065650000642000005465000064
:100ac80073740000000c0000005700006865000007
:100ad8006e200000696e0000207400006865000048
:100ae800206300006f75000072730000652000002d
:100af8006f66000020680000756d0000616e0000e0
:100b080020650000766500006e7400007320000008
:100b18006974000020620000656300006f6d0000ca
:100b280065730000206e00006563000065730000b7
:100b38007361000072790000206600006f72000087
:100b4800206f00006e65000020700000656f0000d7
:100b5800706c000065200000746f000020640000c5
:100b680069730000736f00006c7600006520000058
:100b78007468000065200000706f00006c69000058
:100b880074690000636100006c200000626f00005f
:100b98006e640000730000002077000068690000a0
:100ba800636800002068000061760000652000008e
:100bb800636f00006e6e00006563000074650000de
:100bc8006420000074680000656d00002074000057
:100bd8006f200000616e00006f74000068650000ff
:100be800722c0000206100006e6400002074000078
:100bf8006f20000061730000737500006d650000d0
:100c0800206100006d6f00006e6700002074000016
:100c180068650000207000006f77000065720000b2
:100c2800732000006f6600002074000068650000f3
:100c380020650000617200007468000020740000e4
:100c48006865000020730000657000006172000094
:100c58006174000065200000616e000064200000df
:100c68006571000000750000616c000020730000d1
:100c780074610000746900006f6e00002074000049
:100c88006f2000007768000069630000682000009a
:100c980074680000652000006c6100007773000034
:100ca800206f0000662000006e610000747500006f
:100cb80072650000206100006e640000206f000073
:100cc800662000006e610000747500007265000007
:100cd80027730000206700006f6400002065000093
:100ce8006e740000697400006c65000020740000d8
:100cf800686500006d2c000020670000726100002c
:100d08006e740000732000007468000061740000b5
:100d180020740000686500007920000073680000f6
:100d28006f7500006c6400002064000065630000bb
:100d38006c0000006172000065200000746800000b
:100d48006520000063610000757300006573000092
:100d580020770000686900006368000020630000d5
:100d68006f6d0000706500006c2000007468000062
:100d7800656d0000207400006f200000746800009a
:100d8800652000007365000070610000726100005a
:100d9800746900006f6e00002e2000000000000043
:020000040000fa
:100da8000200fa000000eb00d400070010c0b300f6
:100db8008700070010c0b3008500070097000700f0
:100dc80050c0b300820007000000eb00be0007001f
:100dd80040c0b3007e00070090a62200ba000700ba
:100de800c0c0b3007a00070040c0b3007800070015
:100df80060c0b30076000700c355280082002000b9
:100e0800410620008007200020000700803e2000c7
:100e1800010020003c0007000002eb00040f7800ee
:100e280070562800c100070040c0b30068000700e2
:100e38000080eb00a40007009e0278001400200048
:100e4800a30f2000620020008500780050012000d8
:100e58004b0007001e0fe80040c0b3005c0007000d
:100e680090a622009800070090562800af000700bf
:100e7800005d2800ad00070070632800ab00070084
:100e8800e0692800a9000700e7ff37000a00fa0018
:100e98001007980021079800320798004307980028
:100ea8001e029000040f780011003700d0c0b30074
:100eb800470007004e029000144278000440780072
:100ec800430007001e027800040078007e00070037
:100ed8002e029000040078007b0007003e0290007c
:100ee8001e0f42004e0290000402e80044079800da
:100ef8004e02900014427800e04f5200ebff3a0097
:100f08000080fa00000006000400fa00889fbe0076
:100f18008a9fbe00008fbe001e04be000005eb00c5
:100f28008005eb0004202100a50720006033b800ed
:100f38000800be000a01be0092fe07000203be00c0
:100f48000002be000400be000601be00843e200070
:100f5800050020006033b80021fe07000203be0030
:100f68000002be000402be000400be0048000700e4
:100f78004f05be004f04be000080fa0000000600c6
:100f88000a00fa00000f780011079800220798005d
:100f980033079800440798001e027800044278003e
:100fa800044078000a0007001e0090004600070071
:100fb8002e009000440007003e0090004200070009
:100fc8004e009000400007000080fa000000060074
:100fd8000200fa00004f78000000000015118000a0
:100fe8000420200004826200e00f5200fbff3a0058
:100ff8000000000015118000041020000482620027
:10100800e00f5200fbff32009e4278000582fb0091
:10101800241188000080fa00000006000200fa008f
:101028000002eb00040f7800060037000040eb00d8
:10103800e7ff0700a000200001002000b2ff070022
:101048001e0fe8001e027800f30f5200f7ff34006d
:101058000080fa00000006000200fa00000f780085
:10106800050037001e027800144278001e0fe800c1
:1010780004407800d6ff07001e027800144278006a
:10108800e04f5200f7ff3a000080fa000000060027
:020000040000fa
:10109800f03fb1000180b10006003500ee03090001
:1010a80000000000403fb1000180b100fbff3d009f
:1010b8001000b000203fb000020035000080090099
:0810c80000000000000006001a
:020000040000fa
:1010d0000200fa00000f78001e0278000442780037
:1010e00004407800bcff07001e0278004822de00a2
:1010f0000442780004407800b7ff07000080fa003f
:10110000000006000200fa00000f7800e244a90087
:10111000c400200044118800040028000411880045
:1011200004442000141188008560a9000080fa00a2
:10113000000006000200fa00000f780020c8b3008b
:10114000a5ff07001e007800c5ff07000040eb0068
:0c115000a1ff07000080fa00000006006c
:020000040000fa
:04115c00000000008f
:020000040000fa
:0200000401f009
:04000c00f9ff0000f8
:020000040000fa
:0200000401f009
:040014005fff00008a
:00000001FF
